:0A0000000C942A000C9400000C94EC
:10000A0000000C9400000C9400000C9400000C9466
:10001A0000000C9453000C9400000C9400000C9403
:10002A0000000C9400000C9400000C9400000C9446
:10003A0000000C9400000C9400000C9400000C9436
:10004A0000000C9400000C940000F894EE27ECBB1E
:10005A00F1E0FBBFEBBFE5BF8DE0A2E0BB27ED936C
:10006A008A95E9F780E098E0A0E6ED930197E9F731
:10007A00EFE5EDBFE8E0EEBFC0E6D2E00C94450044
:10008A00EDE3EBBDE9E0EABD7894E9B7E461E9BFE5
:10009A00EBE0EEBDEFEFEABBEBBBFFCFEA93EFB7C6
:1000AA00EA93EBB3E095EBBBE991EFBFE9911895C1
:00000001FF
