:040000000C943C0020
:100004000C9400000C9400000C9400000C9400006C
:100014000C9400000C9400000C9477000C940000E5
:100024000C9400000C9400000C9400000C9400004C
:100034000C9400000C9400000C9400000C9400003C
:100044000C9400000C9400000C9400000C9400002C
:10005400000080C001002D4E414E00494E46000074
:100064000200040054000200600256000100640211
:1000740058000000F894EE27ECBBF1E0FBBFEBBFA7
:10008400E5BF8DE0A2E0BB27ED938A95E9F780E018
:1000940098E0A0E6ED930197E9F7E4E6F0E08591B6
:1000A4009591009761F0A591B59105901590BF01C8
:1000B400F00105900D920197E1F7FB01F0CFEFE518
:1000C400EDBFE8E0EEBFC0E6D2E00C946900A0E129
:1000D40098D065D0EDE3EBBDE9E0EABD7894E9B7EB
:1000E400E461E9BFEBE0EEBDFFCF0A921A92FA9207
:1000F4006A937A938A939A93AA93BA93EA93FA9314
:10010400EFB7EA932A975A924A92DE0112960E9416
:10011400300145D0DE0164D0D2011196E9EEF3E05E
:100124000E948C012F012A96E991EFBFF991E99180
:10013400B991A9919991899179916991F9901990BD
:1001440009901895AA93EBB3EF70AE2FE881E07F86
:10015400EA2BEBBB82E08A95F1F7DA9A82E08A9582
:10016400F1F7DA9882E08A95F1F776C0AA93A8812C
:10017400E9DFE881E295E883A881E4DF81E18A95FB
:10018400F1F76AC0AA93E881F0E0E05AFD4FE081FC
:10019400A981AE0FEBDF7980688022960895A2E0F2
:1001A4000E945E01ACE0E2DFA1E00E945E01E0E0BB
:1001B4006E2E7E2E0895AA93A881AA3011F0791488
:1001C40048F0E0E0EA936394A62DDCDFA881AA302E
:1001D40009F442C07394D89AA881C8DFD8983CC067
:1001E400BA93AA931A93A981BA81ED91A983BA8388
:1001F4001E2FE03019F0A12FDEDFF5CF18812396F2
:100204000895AA93EAB3E06FEABBD29AD09AD19A3E
:10021400DA98D898D9989880E881E058E0936202F7
:10022400E881E054E0936302A4E1B0E00E946B0132
:100234000E9464010E9464010E946401A0E282DFC2
:1002440081E28A95F1F7A8E291DFA4E08FDFA5E8C7
:100254008DDFA6E08BDFA3DF21960895BA93AA93DE
:10026400A991B991E991F99130962AF4E095F09524
:1002740031966DE26D93E89480E197E20DD088EEBB
:1002840093E00AD084E6992707D08AE005D06E2F40
:1002940010D066276C9308956627E817F90720F0B5
:1002A4006395E81BF90BC9F7662311F416F008955A
:1002B4006894605D6D9308950E94B800A3E0B0E077
:1002C4000C946B01A0E30E94A40081E28A95F1F7EB
:1002D4000895109639F08AEF90E00197F1F7A89508
:1002E4001197C9F70895F195E195F0400895002418
:1002F400112490E1AA0FBB1F001C111C0E1A1F0A27
:1003040018F40E0E1F1E01C0A1609A9599F7FD0105
:10031400D0010895E894B7FF04C0A095B095119654
:100324006894F7FDE0DFE3DFFD010EF4DCDF089500
:00000001FF
